:020000040800F2
:10000000C8560020450100084D0100084F010008B6
:1000100051010008530100085501000800000000CC
:100020000000000000000000000000005701000870
:1000300059010008000000005B0100085D01000894
:100040005F0100085F0100085F0100085F01000810
:100050005F0100085F0100085F010008190C00083B
:100060005F010008910C0008A50C00085F01000862
:100070005F0100085F0100085F0100085F010008E0
:100080005F0100085F0100085F0100085F010008D0
:100090005F0100085F0100085F0100085F010008C0
:1000A0005F0100085F0100085F0100085F010008B0
:1000B0005F01000809170008D51700085F01000854
:1000C0005F0100085F0100085F0100085F01000890
:1000D0005F01000801220008052200085F010008F6
:1000E0005F0100085F0100085F0100085F01000870
:1000F0005F0100085F0100085F0100085F01000860
:100100005F0100085F0100085F0100085F0100084F
:100110005F0100085F0100085F0100085F0100083F
:100120005F0100085F0100085F0100085F0100082F
:10013000DFF80CD000F09CF800480047FD7E000876
:10014000C85600200648804706480047FEE7FEE7FD
:10015000FEE7FEE7FEE7FEE7FEE7FEE7FEE7FEE777
:1001600075160008310100080649074A086850431F
:1001700043F23902104408604008704701490860A2
:1001800070470000500300206D4EC64140EA010355
:100190009B0703D009E008C9121F08C0042AFAD23D
:1001A00003E011F8013B00F8013B521EF9D2704701
:1001B000D2B201E000F8012B491EFBD270470022A9
:1001C000F6E710B513460A4604461946FFF7F0FF56
:1001D000204610BD10B5044604E00B7800F8013B42
:1001E00003B1491C521EF8D2204610BD421C10F823
:1001F000011B0029FBD1801A704710B5002200E0D6
:10020000521C835C8C5CA34201D1002BF8D1D8B284
:10021000E1B2401A10BD30B504460020034600E0AC
:100220005B1C934203D2E05CCD5C401BF8D030BD38
:10023000034611F8012B00F8012B002AF9D11846CA
:10024000704730B50B46014600202022012409E00A
:1002500021FA02F59D4205D303FA02F5491B04FA7F
:1002600002F52844151EA2F10102F1DC30BD0000A8
:10027000064C074D06E0E06840F0010394E80700F3
:1002800098471034AC42F6D3FFF756FFBC01010883
:10029000DC01010870B58C1810F8015B15F007033C
:1002A00001D110F8013B2A1106D110F8012B03E00F
:1002B00010F8016B01F8016B5B1EF9D12B0705D417
:1002C0000023521E0DD401F8013BFAE710F8013B60
:1002D000CB1A921C03E013F8015B01F8015B521E7C
:1002E000F9D5A142D8D3002070BD00002DE9F0411E
:1002F00005460F46164605EB450000EBC5000C49C8
:1003000001EB0014276584F84E60A06810B1A06866
:10031000022803D10220A060BDE8F081204600F051
:1003200041F8204600F01CFB0320A06000BFF3E76B
:10033000D810002030B5034603EB430404EBC3049C
:10034000094D05EB0410C0F8AC1080F8AA204468F1
:1003500014B14468022C02D10224446030BD03244D
:10036000446000BFFAE70000D810002070B50546D1
:100370002C46A068032803D0A068052800D070BDD3
:10038000D4E91710884207DB0620A0604CF2232135
:10039000206802F073F9F2E7204600F0E1FA00BFAE
:1003A000EDE700002DE9F041044604F10C0707F0E9
:1003B0009FFD000C4001202101EB104500BFB5F569
:1003C000803F0CDB00BF11A340F21A3218A11DA020
:1003D00002F04CF80020002000BFAFF3008000BF07
:1003E00004F84C5FE078401CC0B2E0706070002000
:1003F00060614C3C002604E007F07AFD07F8010B31
:10040000761CAE42F8DBBDE8F081000044726976EC
:100410006572735C6C7769702D312E342E315C6E91
:10042000657469665C7070705C636861702E6300EF
:100430006368616C5F6C656E203C3D203078666659
:1004400000000000417373657274696F6E2022258D
:100450007322206661696C6564206174206C696E2A
:100460006520256420696E2025730A0070B5054655
:1004700005EB450000EBC500074901EB0014B02176
:100480002046FFF79CFE256000206060A0600620EB
:10049000A0650A20E06570BDD81000202DE9F05F4E
:1004A00007468846164607EB470000EBC70023497E
:1004B00001EB001B4446042E01DABDE8F09F14F85E
:1004C000019B14F801AB2578641C2D0220780543AC
:1004D000641C042D00DAF0E7B54200DDEDE72D1FC6
:1004E000B9F1010F09D0B9F1020F0DD0B9F1030F25
:1004F00018D0B9F1040F1CD10DE02B46524621460D
:10050000584600F097F815E02B46524621465846CB
:1005100000F036F90EE02B4652462146584600F0D0
:1005200017F907E02B4652462146584600F0DCF901
:1005300000E000BF00BF00BFBFE70000D8100020F0
:1005400070B5054605EB450000EBC500104901EB11
:100550000014A068032802D0A068052804D1214611
:100560000C480AF0E9F908E0A068042805D1606D9C
:1005700018B1214608480AF0DFF96068042803D161
:10058000214606480AF0D8F900206060A06070BDDE
:10059000D81000206D03000825090008470900084D
:1005A00070B5054605EB450000EBC5000E4901EBB3
:1005B0000014606810B90120606004E060680228DF
:1005C00001D103206060A06810B90120A0600AE09A
:1005D000A068022807D12046FFF7E4FE204600F07D
:1005E000BFF90320A06070BDD810002070B505468B
:1005F00005EB450000EBC5000D4901EB0014A068B8
:1006000038B1A068012804D04CF22321284602F01A
:1006100035F8606838B16068012804D04CF22321B5
:10062000284602F0CDF82846FFF78AFF70BD00008B
:10063000D81000202DE9F043ADF5217D04460E468B
:1006400091461D466068012802D06068022803D1E7
:100650000DF5217DBDE8F083022D00DAF8E716F8EC
:10066000017B781C2D1A002D00DAF1E7B0463E44DC
:10067000FF2D00DDFF252A46314620A8FFF786FD25
:10068000002020A948552F4890F80B0380B12D4831
:100690000078C0F3800010B99DF8800040B94FF495
:1006A0008072294920A8FFF795FD00208DF87F0171
:1006B0000020A0A9CDE9001060AB20AAD4F8AC10AE
:1006C000206803F013FA08B90020A090606804289D
:1006D00003D121461D480AF02FF984F8A990002083
:1006E000606694F8AA0005281FD106A800F0F4FD62
:1006F000012204F1A90106A800F000FE60A906A8E5
:10070000A09A00F0FBFD3A46414606A800F0F6FD2F
:1007100006A902A800F070FD02A80FC868340FC433
:10072000783C102084F8A80000E091E700BF4FF467
:10073000807160A8FFF743FD204600F06FF900BF0D
:1007400086E70000B41F0020BF22002047090008F0
:100750002DE9F04104460D4616461F466068042800
:1007600001D0BDE8F081214604480AF0E5F84CF2DA
:100770002321206802F024F800BFF2E747090008AF
:100780002DE9F04FADF5217D04460E4692461D46FB
:10079000A068012802D0A068022803D10DF5217DB0
:1007A000BDE8F08F94F84D00504500D0F6E7A06802
:1007B000042804D10321204600F092F9EEE7A06856
:1007C000062804D10421204600F08AF9E6E7022D2C
:1007D00000DAE3E716F8018B3746464408F10100DA
:1007E0002D1A002D00DAD9E721463D480AF0A4F879
:1007F000FF2D00DDFF252A46314660A8FFF7C6FC25
:10080000002060A948554FF004090120A0A9CDE9B6
:10081000001006AB60A9226D206803F067F958B399
:1008200094F84E00052825D1B8F1100F00D022E031
:1008300046A800F051FD012204F14D0146A800F048
:100840005DFD06A946A8A09A00F058FD94F84C203A
:1008500004F10C0146A800F051FD46A902A800F0E1
:10086000CBFC1022394602A8FFF7D5FC08B94FF09F
:10087000030900E000BF00BF4FF4807106A8FFF736
:100880009EFC4946204600F02BF9B9F1030F1ED11A
:10089000D4F808B00420A060BBF1030F06D12B46AA
:1008A00060AA4CF22321206801F0FCFE606DA8B123
:1008B00000BF21460B480AF03FF84FF47A72616D91
:1008C00001FB02F02246074909F078FF06E0062006
:1008D000A0604CF22321206801F0D0FE00BF5DE74C
:1008E0006D030008250900082DE9F04104460D4676
:1008F00016461F466068052801D1BDE8F081606892
:10090000042800D0F9E7214605480AF015F805202B
:1009100060604CF22321206801F084FF00BFECE707
:100920004709000870B504462546A868042800D089
:1009300070BD2846FFF736FD284600F011F8052067
:10094000A86000BFF4E770B504462546686804282F
:1009500000D070BD284600F061F800BFF9E7000044
:100960002DE9F041054695F84C60286DFFF73EFCF7
:100970008046701D00EB08072868C0EB001101EBF2
:100980004010244901EB4014FF2004F8010B032020
:1009900004F8010BC22004F8010B232004F8010B1A
:1009A000012004F8010B95F84D0004F8010B380AFA
:1009B00004F8010B04F8017B04F8016B324605F1E1
:1009C0000C012046FFF7E2FB344442462046296DE5
:1009D000FFF7DCFB2A68C2EB021303EB42120D4B5C
:1009E00003EB42113A1D286809F0D8FB00BF2946E5
:1009F000094809F0A1FF4FF47A72A96D01FB02F0DA
:100A00002A46054909F0DAFE00BF286E401C286618
:100A1000BDE8F081D41900206D0300082DE9F041F4
:100A2000054695F8A860D5F8AC00FFF7DFFB8046D7
:100A3000701D00EB08072868C0EB001101EB4010A7
:100A4000254901EB4014FF2004F8010B032004F8B2
:100A5000010BC22004F8010B232004F8010B022033
:100A600004F8010B95F8A90004F8010B380A04F802
:100A7000010B04F8017B04F8016B324605F16801B3
:100A80002046FFF783FB344442462046D5F8AC109D
:100A9000FFF77CFB2A68C2EB021303EB42120E4BFA
:100AA00003EB42113A1D286809F078FB04206860C6
:100AB00000BF2946094809F03FFF4FF47A72A96D3B
:100AC00001FB02F02A46054909F078FE00BF686E76
:100AD000401C6866BDE8F081D41900204709000871
:100AE0002DE9F041C0B005468846B8F1030F04D1A6
:100AF00020A16846FFF79CFB03E021A16846FFF7B1
:100B000097FB6846FFF772FB07463E1D2868C0EB5F
:100B1000001101EB4010214901EB4014FF2004F8C3
:100B2000010B032004F8010BC22004F8010B232061
:100B300004F8010B04F8018B95F84D0004F8010B43
:100B4000300A04F8010B04F8016B3A466946204666
:100B5000FFF71CFB2A68C2EB021303EB42120F4B98
:100B600003EB4211321D286809F018FB40B0BDE8C4
:100B7000F081000057656C636F6D65210000000017
:100B80004920646F6E2774206C696B6520796F75DE
:100B90002E2020476F20277761792E00D41900205E
:100BA0000EB51A20019000208DF808000C208DF859
:100BB000090001208DF80A0001A800F0ADF80A2014
:100BC0008DF8000000208DF8010001208DF8020052
:100BD0008DF80300684600F0EDFB09208DF8000059
:100BE00002208DF8010003208DF8020001208DF80D
:100BF0000300684600F0DEFB07208DF800000120AE
:100C00008DF8010000208DF8020001208DF803000E
:100C1000684600F0CFFB0EBD10B5022000F068F86A
:100C200050B3022000F056F81448154908601548E2
:100C3000007815490870002413E011480068007816
:100C4000124908800E480068401C0D49086000BF2A
:100C50000E48001F008800F040000028F8D0601CFB
:100C6000C4B2094800788442E7DB002005490880C7
:100C7000054908700249086010BD0000980900206D
:100C8000B0000020C4000020AC0000200438014067
:100C900010B5082000F02CF810B1082000F01AF868
:100CA00010BD000010B5102000F022F858B110203F
:100CB00000F010F804480088C0F30D02034904480E
:100CC000006809F023FC10BDC60000209809002030
:100CD000940000200149086070470000140401409E
:100CE000024909680143014A11607047100401403C
:100CF000014600200022074B1B6803EA0102054B56
:100D000014331B680B4013B10AB1012000E000202E
:100D10007047000000040140002123498279002A25
:100D20003AD00A46126803689A430B461A600A1DB5
:100D3000126803689A430B1D1A60027911440A680D
:100D400003681A430A60184A0832126803689A4313
:100D5000154B08331A601A1D126803689A43124B28
:100D60000C331A604279102A0ED11A1F12680368D8
:100D70001A430D4B08331A601A1D126803681A4390
:100D8000094B0C331A600DE00749427911440A6897
:100D900003681A430A6005E0027911440A6803688F
:100DA0009A430A6070470000000401402DE9F041B9
:100DB000024600250026002000230024002791F889
:100DC00003C00CF00F0591F803C00CF0100CBCF13F
:100DD000000F03D091F802C04CEA050591F800C05D
:100DE000BCF1000F31D0146800202BE04FF0010C53
:100DF0000CFA00F3B1F800C00CEA03069E4220D1C1
:100E000083004FF00F0C0CFA03F7BC4305FA03FC08
:100E10004CEA040491F803C0BCF1280F06D14FF04E
:100E2000010C0CFA00FCC2F814C00AE091F803C0EF
:100E3000BCF1480F05D14FF0010C0CFA00FCC2F8D0
:100E400010C0401C0828D1D31460B1F800C0BCF118
:100E5000FF0F34DD546800202EE000F1080C4FF045
:100E6000010808FA0CF3B1F800C00CEA03069E4230
:100E700021D183004FF00F0C0CFA03F7BC4305FAA5
:100E800003FC4CEA040491F803C0BCF1280F05D11F
:100E900000F1080C08FA0CF8C2F8148091F803C0AD
:100EA000BCF1480F07D100F1080C4FF0010808FA17
:100EB0000CF8C2F81080401C0828CED35460BDE85E
:100EC000F08101617047000070B50546284606F0C4
:100ED000B1FF054605F0004010B94FF07F4408E02F
:100EE00005F04040B0F1004F01D1064C01E06FF039
:100EF000FF04204606F09EFF0349096840EA010608
:100F0000304670BD0000FFFF6C0200201C48806965
:100F100040F004001A4988610846806940F01000DA
:100F200088611848006820F00F00164908600846DC
:100F3000006840F008000860081D006820F070405C
:100F4000091D08600846006840F0004008600D4830
:100F50000C30006840F400400A490C3108600A482F
:100F6000006820F47000084908600846006840F4F2
:100F7000000008600846C06840F02000C860704764
:100F800000100240000801400010014010B5044666
:100F900014B101201B4908701A48007808B31A4898
:100FA000006838B11948006820B118483C3800681A
:100FB000012816D10A2001F075FD002011490870A2
:100FC0001148006808B9012010BD1048006808B930
:100FD0000220F9E70D483C380068012810D10320B1
:100FE000F2E70948006801280AD10848006801288A
:100FF00006D106483C38006810B901200149087044
:101000000020E1E7C8000020140122423C012142F7
:1010100008B50121242000F02FFA4FF48070ADF8BC
:10102000000010208DF8030003208DF802006946AF
:101030000948FFF7BBFE4FF480710748FFF741FFF7
:101040000420ADF8000069460448FFF7AFFE042114
:101050000248FFF736FF08BD0008014000140140B8
:1010600010B50446204600F083F800BF124800681F
:1010700000280CD000BF11A340F2A57218A11FA038
:1010800001F0F4F90020002000BFAFF3008000BFA2
:1010900000BF2146234809F04FFC234909684FF45B
:1010A0007A7201FB02F022461E4909F087FB00BF5D
:1010B00001200149086010BD980100204472697642
:1010C0006572735C6C7769702D312E342E315C6ED5
:1010D000657469665C7070705C6C63702E63000090
:1010E0006C63705F6563686F5F74696D65725F7272
:1010F000756E6E696E67203D3D20300041737365EB
:101100007274696F6E2022257322206661696C6596
:1011100064206174206C696E6520256420696E20EE
:1011200025730A002D1100088801002010B504461F
:101130000448006828B10020024908602046FFF7F3
:101140008FFF10BD9801002010B50446A068092843
:1011500003D102A1206805F03BFB10BD506565720C
:10116000206E6F7420726573706F6E64696E6700B5
:101170007CB506461C48006858B11C4800681A49EE
:101180000968884205D33046FFF7DEFF0020174983
:101190000860B068092826D1306800EB4000144987
:1011A00001EBC000C56801AC280E04F8010B280C47
:1011B00004F8010B280A04F8010B04F8015B01A8EC
:1011C000201A00900B4801780068401C094BCAB2F5
:1011D000186001AB0921304602F0BCFB03480068EF
:1011E000401C024908607CBD8C0100209001002059
:1011F00090120020940100202DE9F04391B0804628
:101200000C4620680F90606810902088C0F3C507D6
:10121000382F02DAC7F1380001E0C7F178008146C3
:101220004A462C49204600F069F80026002519E0BE
:1012300004F11800E91C405C020604F11800A91C26
:10124000405C42EA004204F11800691C405C42EA3A
:10125000002004F11801495D084301A941F8260066
:10126000761C2D1D0E2EE3D301A904F1080000F019
:10127000F3FB0026002521E004F1080010F82610F9
:1012800050304155503830F82600C0F3072204F1A1
:101290005800691C4254503850F82600C0F30742E9
:1012A00004F15800A91C4254503850F82600000E92
:1012B00004F15801EA1C8854761C2D1D042EDBD342
:1012C000102204F158014046FEF760FF11B0BDE85E
:1012D000F083000004020020002141600160054904
:1012E0008160054AC260CA430261034AD243426137
:1012F000704700000123456789ABCDEF2DE9F0432E
:1013000091B004460F4615462088C0F3C5092068F1
:1013100000EBC5002168884202D26068401C606012
:10132000206800EBC5002060606800EB55706060CD
:1013300033E017F8012B484609F1010904F11801BF
:101340000A54B9F1400F28D14FF0000800261AE0E6
:1013500004F11800F11C405C020604F11800B11CF5
:10136000405C42EA004204F11800711C405C42EA11
:10137000002004F11801895D084301A941F8280003
:1013800008F10108361DB8F1100FE1D301A904F1ED
:10139000080000F061FB4FF00009281EA5F10105CF
:1013A000C7D111B0BDE8F08310B54FF4A06000F0D4
:1013B00039F810BD70B5002100230F22C47804B3A2
:1013C000154C246804F4E064C4F5E064210AC1F11A
:1013D0000403CA40447804FA03F18478144021439A
:1013E00009010E4C0678A155047804F01F0501246C
:1013F000AC4005786D11AD0005F1E025C5F8004160
:1014000009E0047804F01F050124AC40044D06787F
:10141000761145F8264070BD0CED00E000E400E0D8
:1014200080E100E002490143024A11607047000078
:101430000000FA050CED00E029B1064AD26902432A
:10144000044BDA6104E0034AD2698243014BDA615A
:10145000704700000010024029B1064A1269024399
:10146000044B1A6104E0034A12698243014B1A617A
:10147000704700000010024029B1064A92690243F9
:10148000044B9A6104E0034A92698243014B9A61DA
:10149000704700000010024029B1064AD26802439A
:1014A000044BDA6004E0034AD2688243014BDA60FD
:1014B000704700000010024030B5002100220024D7
:1014C00000232D4D6D6805F00C0121B1042905D0D4
:1014D000082923D105E0294D056022E0274D05604C
:1014E0001FE0254D6D6805F47012234D6D6805F4FD
:1014F0008034022505EB92421CB9214D554305600D
:101500000BE01D4D6D6805F400351DB11C4D5543B4
:10151000056002E0194D5543056002E0174D056076
:1015200000BF00BF144D6D6805F0F0010909154DAD
:101530006B5C0568DD4045600F4D6D6805F4E0614A
:10154000090A104D6B5C4568DD4085600A4D6D6889
:1015500005F46051C90A0B4D6B5C4568DD40C56000
:10156000054D6D6805F44041890B074D6B5CC568FE
:10157000B5FBF3F5056130BD0010024000127A00A2
:1015800000093D003A0300204A03002010B500F096
:1015900001F810BD0CB500200190009033480068A0
:1015A00040F480303149086000BF3048006800F4E2
:1015B000003000900198401C0190009818B90198E3
:1015C000B0F5A06FF1D12948006800F4003010B1E7
:1015D0000120009001E0002000900098012843D1F4
:1015E0002348006840F01000214908600846006860
:1015F00020F0030008600846006840F00200086020
:101600001A484068194948600846406848600846DA
:10161000406840F4806048600846406820F47C10D0
:1016200048600846406840F4E81048600846006892
:1016300040F08070086000BF0C48006800F0007047
:101640000028F9D00948406820F0030007494860A5
:101650000846406840F00200486000BF0348406808
:1016600000F00C000828F9D10CBD00000010024069
:101670000020024010B51348006840F001001149F5
:10168000086008464068104908400E49486008460E
:1016900000680E4908400B4908600846006820F4BD
:1016A000802008600846406820F4FE0048604FF43F
:1016B0001F008860FFF76AFF4FF000600449086070
:1016C00010BD0000001002400000FFF8FFFFF6FE12
:1016D00008ED00E038B5094800900AF06BFC0446BC
:1016E0004FF4FA520649204609F060FA054B41F6DC
:1016F00090726946204609F019FC38BD792A3138C4
:1017000088000108351A000810B50121144800F0BE
:1017100024F920B30121124800F010F911480068A3
:10172000401C10490860084600686421B0FBF1F2D3
:1017300001FB120098B90C48006808B9012000E0CC
:1017400000200949086009480068012807D10848B5
:10175000006808B9012000E000200549086010BDBC
:1017600000040040A8000020A001214298000020B1
:10177000888122421FB501210220FFF75DFE632010
:10178000ADF8080041F61F40ADF804000020ADF8A8
:101790000A00ADF8060001A90D4800F0F9F8012291
:1017A00011460B4800F0EAF81D208DF800000220D9
:1017B0008DF8010003208DF8020001208DF8030050
:1017C0006846FFF7F7FD0121014800F0BAF81FBD98
:1017D0000004004010B52C48008800F001000028EB
:1017E00051D02A480088002840D02848008840F47A
:1017F000004026490880084600882549088022487C
:10180000008820F0010020490880002000F07EF8C8
:101810001F480088C0F30D001E49086000201E49C3
:10182000086012E01D481C490968405C1C4908809A
:1018300000BF1B48001F008800F040000028F8D0BF
:1018400015480068401C1449086013480068114995
:1018500009688842E6D300200C49088011480068D6
:10186000012810D11020FFF73BFA0CE00748008850
:10187000064908800448008820F0010002490880D9
:10188000002000F043F810BD10080040C400002004
:10189000C60000209C000020A00000209809002025
:1018A000043801409000002038B505460C46154824
:1018B000C06940F004001349C86113480580001F47
:1018C000048011482038008840F001000E4920397A
:1018D00008800D482C38008840F001000A492C3956
:1018E00008801E208DF8000003208DF801000220E2
:1018F0008DF8020001208DF803006846FFF75AFDBD
:1019000038BD0000001002402C08004058B10021F2
:10191000094A118008492439098841F00101064A21
:10192000243A118007E004492439098821F0010193
:10193000014A243A1180704724080040CA430282B9
:10194000704721B1028842F00102028004E002885F
:101950004FF6FE731A400280704730B502460020F1
:1019600000230024158A05EA0103958905EA01048C
:1019700013B10CB1012000E0002030BD1AB1838901
:101980000B43838102E083898B438381704700008E
:10199000002202881D4B98420ED01D4B98420BD05E
:1019A000B0F1804F08D01B4B984205D01A4B98429B
:1019B00002D01A4B984204D14FF68F731A404B88CD
:1019C0001A43174B984207D0164B984204D04FF653
:1019D000FF431A40CB881A4302808B8883850B888B
:1019E00003850A4B98420BD0094B984208D00E4B06
:1019F000984205D00D4B984202D00D4B984201D130
:101A00000B7A03860123838270470000002C01407B
:101A1000003401400004004000080040000C004079
:101A2000001000400014004000400140004401400C
:101A30000048014070B505460C46164600231F229B
:101A4000044920460CF030FE204609F03FF9002002
:101A500070BD000004FE0008F0B505460C4628687D
:101A60006968AA68EB6801EA020623EA01073E43B7
:101A700027683E44FE4F3E443044C60146EA50606B
:101A8000084400EA010622EA00073E4367683E4434
:101A9000F84F3E4433441E0346EA1353034403EA1B
:101AA000000621EA03073E43A7683E44F24F3E4446
:101AB0003244560446EAD2321A4402EA030620EAC5
:101AC00002073E43E7683E44EC4F3E4431448E05F6
:101AD00046EA9121114401EA020623EA01073E4346
:101AE00027693E44E64F3E443044C60146EA506012
:101AF000084400EA010622EA00073E4367693E44C3
:101B0000E04F3E4433441E0346EA1353034403EAC2
:101B1000000621EA03073E43A7693E44DA4F3E44EC
:101B20003244560446EAD2321A4402EA030620EA54
:101B300002073E43E7693E44D44F3E4431448E059C
:101B400046EA9121114401EA020623EA01073E43D5
:101B5000276A3E44CE4F3E443044C60146EA5060B8
:101B6000084400EA010622EA00073E43676A3E4451
:101B7000C84F3E4433441E0346EA1353034403EA6A
:101B8000000621EA03073E43A76A3E44A6F5244621
:101B90004F3E3244560446EAD2321A4402EA030661
:101BA00020EA02073E43E76A3E44BB4F3E443144CD
:101BB0008E0546EA9121114401EA020623EA010753
:101BC0003E43276B3E44B54F3E443044C60146EA8F
:101BD0005060084400EA010622EA00073E43676BB2
:101BE0003E44AF4F3E4433441E0346EA135303447E
:101BF00003EA000621EA03073E43A76B3E44A94FD0
:101C00003E443244560446EAD2321A4402EA0306FB
:101C100020EA02073E43E76B3E44A34F3E44314473
:101C20008E0546EA9121114401EA030622EA0307E0
:101C30003E4367683E449D4F3E443044460146EA79
:101C4000D060084400EA020621EA02073E43A76981
:101C50003E44974F3E4433445E0246EAD353034426
:101C600003EA010620EA01073E43E76A3E44914F3A
:101C70003E443244960346EA92421A4402EA00067F
:101C800023EA00073E4327683E448B4F3E443144DD
:101C90000E0546EA1131114401EA030622EA030760
:101CA0003E4367693E44854F3E443044460146EA20
:101CB000D060084400EA020621EA02073E43A76A10
:101CC0003E447F4F3E4433445E0246EAD3530344CE
:101CD00003EA010620EA01073E43E76B3E44794FE1
:101CE0003E443244960346EA92421A4402EA00060F
:101CF00023EA00073E4327693E44734F3E44314484
:101D00000E0546EA1131114401EA030622EA0307EF
:101D10003E43676A3E446D4F3E443044460146EAC6
:101D2000D060084400EA020621EA02073E43A76B9E
:101D30003E44674F3E4433445E0246EAD353034475
:101D400003EA010620EA01073E43E7683E44614F8B
:101D50003E443244960346EA92421A4402EA00069E
:101D600023EA00073E43276A3E445B4F3E4431442A
:101D70000E0546EA1131114401EA030622EA03077F
:101D80003E43676B3E44554F3E443044460146EA6D
:101D9000D060084400EA020621EA02073E43A76831
:101DA0003E444F4F3E4433445E0246EAD35303441D
:101DB00003EA010620EA01073E43E7693E44494F32
:101DC0003E443244960346EA92421A4402EA00062E
:101DD00023EA00073E43276B3E44434F3E443144D1
:101DE0000E0546EA1131114481EA02065E40676938
:101DF0003E443E4F3E443044060146EA10700844DB
:101E000080EA01065640276A3E44394F3E44334437
:101E1000DE0246EA5353034483EA00064E40E76A73
:101E20003E44344F3E443244160446EA12421A44B9
:101E300082EA03064640A76B3E442F4F3E4431449E
:101E4000CE0546EA5121114481EA02065E406768E8
:101E50003E442A4F3E443044060146EA107008448E
:101E600080EA0106564027693E44254F3E4449E03A
:101E700078A46AD756B7C7E8DB702024EECEBDC180
:101E8000AF0F7CF52AC68747134630A8019546FD5B
:101E9000D8988069AFF7448BBED75C892211906BCC
:101EA000937198FD8E4379A62108B44962251EF6E8
:101EB00040B340C0515A5E26AAC7B6E95D102FD67E
:101EC0005314440281E6A1D8C8FBD3E7E6CDE12153
:101ED000D60737C3870DD5F4ED145A4505E9E3A9B4
:101EE000F8A3EFFCD9026F678A4C2A8D4239FAFFBA
:101EF00081F6718722619D6D0C38E5FD44EABEA430
:101F0000A9CFDE4B3344DE0246EA5353034483EA4F
:101F100000064E40E7693E449F4F3E44324416045B
:101F200046EA12421A4482EA03064640A76A3E4441
:101F30009A4F3E443144CE0546EA5121114481EA8C
:101F400002065E40676B3E44954F3E4430440601B6
:101F500046EA1070084480EA0106564027683E446D
:101F6000904F3E443344DE0246EA5353034483EA2F
:101F700000064E40E7683E448B4F3E443244160410
:101F800046EA12421A4482EA03064640A7693E44E2
:101F9000864F3E443144CE0546EA5121114481EA40
:101FA00002065E40676A3E44814F3E44304406016B
:101FB00046EA1070084480EA01065640276B3E440A
:101FC0007C4F3E443344DE0246EA5353034483EAE3
:101FD00000064E40E76B3E44774F3E4432441604C1
:101FE00046EA12421A4482EA03064640A7683E4483
:101FF000724F3E443144CE0546EA5121114461EA14
:102000000306564027683E446D4F3E4430448601E7
:1020100046EA9060084460EA02064E40E7693E44A2
:10202000684F3E4433449E0246EA9353034463EAB6
:1020300001064640A76B3E44634F3E443244D603FC
:1020400046EA52421A4462EA00065E4067693E442C
:102050005E4F3E4431444E0546EAD121114461EAC7
:1020600003065640276B3E44594F3E443044860198
:1020700046EA9060084460EA02064E40E7683E4443
:10208000544F3E4433449E0246EA9353034463EA6A
:1020900001064640A76A3E444F4F3E443244D603B1
:1020A00046EA52421A4462EA00065E4067683E44CD
:1020B0004A4F3E4431444E0546EAD121114461EA7B
:1020C00003065640276A3E44454F3E44304486014D
:1020D00046EA9060084460EA02064E40E76B3E44E0
:1020E000404F3E4433449E0246EA9353034463EA1E
:1020F00001064640A7693E443B4F3E443244D60366
:1021000046EA52421A4462EA00065E40676B3E4469
:10211000364F3E4431444E0546EAD121114461EA2E
:102120000306564027693E44314F3E443044860101
:1021300046EA9060084460EA02064E40E76A3E4480
:102140002C4F3E4433449E0246EA9353034463EAD1
:1021500001064640A7683E44274F3E443244D6031A
:1021600046EA52421A4462EA00065E40676A3E440A
:10217000224F3E4431444E0546EAD12111442E6897
:1021800006442E606E680E446E60AE681644AE6003
:10219000EE681E44EE60F0BD604BBBF670BCBFBE87
:1021A000C67E9B28FA27A1EA8530EFD4051D880456
:1021B00039D0D4D9E599DBE6F87CA21F6556ACC4CA
:1021C000442229F497FF2A43A72394AB39A093FC18
:1021D000C3595B6592CC0C8F7DF4EFFFD15D848594
:1021E0004F7EA86FE0E62CFE144301A3A111084E18
:1021F000827E53F735F23ABDBBD2D72A91D386EB14
:102200007047000010B51348008800F0200000B3AC
:102210001048001D0088C4B20F480088B0F5C86F90
:1022200011DA00200D4908800B48008810B9012000
:10223000FFF76CFB084801880088401C064A1080A4
:102240000748445405E00448008840F4004002492F
:10225000088010BD00440040C40000202408004055
:102260009809002030B5034600220DE01C78084D87
:102270002C805B1C00BF064C241F248804F0400403
:10228000002CF8D0541CE2B28A42EFD330BD0000DB
:102290000444004021B1828942F40052828104E06A
:1022A00082894DF6FF731A408281704710B504464B
:1022B0002048844209D101218803FFF7EDF800216D
:1022C0004FF48040FFF7E8F832E01B48844209D120
:1022D00001214804FFF7C0F800214FF40030FFF758
:1022E000BBF825E01548844209D101218804FFF795
:1022F000B3F800214FF48020FFF7AEF818E0104843
:10230000844209D10121C804FFF7A6F800214FF447
:102310000020FFF7A1F80BE00A48844208D1012110
:102320000805FFF799F800214FF48010FFF794F8A3
:1023300010BD00000038014000440040004800404B
:10234000004C004000500040F0B503460024002639
:102350000025002040F66A17B94200D100BF184698
:10236000C1F3421401F01F06012707FA06F5012CFC
:1023700001D10C3004E0022C01D1103000E0143007
:102380001AB107682F43076002E00768AF43076090
:10239000F0BD00002DE9F04786B005460E4600244A
:1023A000A24600BFA1460027B08900B100BF2F465A
:1023B0002C8A4CF6FF700440F08804432C82AC89D0
:1023C0004EF6F3100440B088318908437189084300
:1023D0000443AC81AC8A4FF6FF400440B08904430B
:1023E000AC8201A8FFF768F81F48874202D1DDF8E8
:1023F00010A001E0DDF80CA0A88900F4004040B175
:102400000AEBCA0000EB0A1031684900B0FBF1F892
:1024100007E00AEBCA0000EB0A1031688900B0FB44
:10242000F1F86420B8FBF0F004012009642101FBFD
:102430001089A88900F4004040B1322000EBC900A7
:10244000B0FBF1F000F00700044308E0322000EB9D
:1024500009106421B0FBF1F000F00F0004432C815F
:1024600006B0BDE8F0870000003801400FB4054B0E
:1024700010B503A9044A029800F018F810BC5DF8E2
:1024800014FB000071310008B800002002E008C809
:10249000121F08C1002AFAD170477047002001E0DE
:1024A00001C1121F002AFBD1704700002DE9FF4F28
:1024B0008BB09A460F460546002606E025280BD02D
:1024C00052460D9990476D1C761C28780028F5D14E
:1024D0000FB03046BDE8F08F0024A04601226049CD
:1024E00000E0044315F8013F203B02FA03F00842E4
:1024F000F7D128782E2817D115F8010F44F00404DD
:102500002A280ED06FF02F022878A0F13001092977
:102510000AD808EB880102EB410100EB01086D1CB1
:10252000F2E757F8048B6D1C287869283ED006DC4A
:102530000028CDD063280BD0642804D136E073285E
:1025400010D075284BD052460D999047761C85E0E7
:1025500017F8040B8DF8000000208DF80100E94603
:10256000012003E057F8049B4FF0FF3061074FF064
:10257000000401D40AE0641C44450DDA8442FADB0D
:1025800019F804100029F6D106E0641C8442FCDB33
:1025900019F804100029F8D1264404E019F8010BB9
:1025A00052460D999047641EF8D257E001CF4FF084
:1025B0000A0B002802DA40422D2102E0210504D551
:1025C0002B218DF82410012103E0E10705D0202103
:1025D000F7E70DF1200908910CE00021F9E701CFA0
:1025E0004FF00A0BF9E75946FDF72BFE01F13002D7
:1025F00009F8012D0028F6D1ADEB090000F1200B00
:10260000600701D44FF00108D84502DDA8EB0B00AC
:1026100000E000208046002406E009A85246005D44
:102620000D999047641C761C08988442F5DB04E001
:10263000302052460D999047761CB8F10001A8F160
:102640000108F5DC05E019F8010B52460D99904799
:10265000761CBBF10001ABF1010BF4DC6D1C34E71F
:102660000928010070B504460D46034850F82410AF
:10267000284601F0F3FA70BDDC00002070B5044676
:102680000D4602A1204604F0A3F870BD41757468A0
:10269000656E7469636174696F6E206661696C65EB
:1026A000640000002DE9F0410546884617461C46A7
:1026B000A8F54040233820B1B0F5007F03D10826AB
:1026C00003E0022601E0BDE8F08100BFFF2C00DD41
:1026D000FF24224639460948FDF758FD00200749E6
:1026E0000855074850F82500B043054941F8250032
:1026F00010B9284606F032F900BFE4E7D80F0020F1
:10270000D00000202DE9F041064606EB460027499F
:1027100001EBC004264D274F27480078C0F3C000C6
:1027200058B9254890F8090128B9002211463046C9
:1027300001F0C8F908B1012100E00021286861F327
:10274000451028601C480078C0F3001028B91A48CA
:1027500090F8090108B1012100E00021286861F327
:10276000861028602078C0F3401030B101F0EDF9F8
:1027700018B9206820F0200020602078C0F3801075
:1027800090B13888C0F3002008B1002000E0F8685C
:1027900080464246094901F2011001F0D3F918B907
:1027A000206820F040002060BDE8F08190120020F9
:1027B000A812002088110020B41F0020BE21002094
:1027C00038B504460D466FF00600009008480068D2
:1027D00020B14FF480710748FDF7F1FC6A4665218E
:1027E000204607F079F904A1204603F0F1FF38BD37
:1027F000E8000020BD2000204661696C65642074FB
:102800006F2061757468656E746963617465206FAB
:10281000757273656C76657320746F207065657270
:102820000000000070B505460E46A6F5404023386E
:1028300020B1B0F5007F0BD104240BE00C480068F8
:1028400020B14FF480710B48FDF7B9FC012401E081
:10285000002400BF00BF084850F82500A0430649E7
:1028600041F8250010B9284606F078F870BD000040
:10287000E8000020BD200020D000002010B5FDF7AA
:1028800073FC0446FDF770FC04EB00400149096845
:10289000084410BD9002002010B507F083FF0549E1
:1028A000096808440349086008460068FDF766FCAB
:1028B00010BD00009002002010B50C48006828B937
:1028C00001200A490860FFF7E7FF09E007F06AFF07
:1028D00007490968401A074909680844054908601A
:1028E00007F060FF0249086010BD00008C02002064
:1028F000940200209002002010B50446204605F006
:10290000BCFA04467F20B0EB146F09D004F070408D
:10291000B0F1604F04D004F07040B0F1704F01D1BD
:10292000012010BD0020FCE738B5054669460020AF
:1029300001F0C4F800B938BDBDF80000BDF80210C0
:10294000884202DABDF8000001E0BDF8020004464A
:102950000D484088A04204DC0CA1002003F038FFA1
:1029600010E000BF00210D4807F0E6FF0649498846
:10297000091B4FF47A7201FB02F00022074907F0AD
:102980001DFF00BF00BFD6E7B41F00204C696E6B6F
:1029900020696E616374697665000000292900086A
:1029A000F0B50746DDE90646059D002020600220BF
:1029B000F0BD000070B503460C4603EB830505EB44
:1029C000C3050E4E06EB05110120002B04DB012B85
:1029D00002DA91F838500DB900200EE00025C1F858
:1029E000B4500026B8256E506FF07F46BC256E505F
:1029F0000026C0256E50C4256E5070BD04190020FD
:102A00002DE9F04104460F46904604EB840000EBAC
:102A1000C400094901EB00150126002C04DB012C40
:102A200002DA95F8380008B9002602E0002005F027
:102A30000FFF3046BDE8F0810419002010B50446B0
:102A400002A1002003F0C4FE10BD0000436F6E6EB3
:102A50006563742074696D6520657870697265645A
:102A6000000000004FF0E021096921F004014FF05F
:102A7000E0221161C21700EB5272C2F3C702074B8A
:102A80001A701946097801EB4102C2EBC1114FF6E9
:102A9000FF7202EAC101024A11807047CA00002099
:102AA000CC00002001460D4A12884A434FF0E02333
:102AB0005A6100229A6101221A6100BF4FF0E022A0
:102AC000106900F001021AB100F48032002AF5D03A
:102AD00000224FF0E0231A619A617047CC00002079
:102AE00010B5002404E0204600F006F8601CC4B2D3
:102AF000042CF8DB10BD000070B50646C6EBC6001E
:102B000000EB8000474901EBC00400BF042E0CDB42
:102B100000BF45A340F281224BA152A0FFF7A6FCC3
:102B20000020002000BFAFF3008000BF2078002805
:102B300066D0012804D0022815D0032861D154E0C2
:102B400002202070002060700120A0700020E07042
:102B50006078324604F10C0100F0DEF905460DB153
:102B600000BF00BF5BE0A078401EC0B2A07000288C
:102B70003AD1E078401CC0B2E070042828D16078D7
:102B8000401C022812DA6078401C404901EB8000AA
:102B900060B16078401C51F8200038B16078401C6A
:102BA00060700120A0700020E07038E000BF00BF1E
:102BB000D4F8100138B1002104F10C00D4F8103120
:102BC000D4F81421984700202070C4F8100126E0A2
:102BD000E078A0706078324604F10C0100F09CF9B6
:102BE00005460DB100BF00BF19E0A068401EA060FF
:102BF00028B900BF00BF00202070C4F810010EE00B
:102C00000DE000BF00BF08A340F2C52220A115A01F
:102C1000FFF72CFC0020002000BFAFF3008000BFB6
:102C200070BD0000C0230020447269766572735C39
:102C30006C7769702D312E342E315C636F72655C58
:102C4000646E732E63000000617272617920696E98
:102C5000646578206F7574206F6620626F756E648E
:102C600073000000417373657274696F6E202225D2
:102C70007322206661696C6564206174206C696EE2
:102C80006520256420696E2025730A00A0020020BB
:102C9000756E6B6E6F776E20646E735F7461626CBD
:102CA0006520656E7472792073746174653A0000F2
:102CB00010B5024600BF11F8013B03F0C000C02868
:102CC00000D110E009E010780C78A04201D001207A
:102CD00010BD491C521C581EC3B2002BF3DC521C01
:102CE00008780028E7D100BF0020F1E708B51448B4
:102CF00020F003001349086013A002F093F800903D
:102D000000BF00BF14480068C0B90CF0EDFB1249C9
:102D100008600846006888B100BF00BF00220F4964
:102D20000D4800680CF0E0F900220D490A480068DF
:102D30000CF018FC6946002000F0ECF908BD00001A
:102D400023280020A80200203230382E36372E32B9
:102D500032322E3232320000980200208800010800
:102D6000912D0008014600BF11F8012B02F0C000B0
:102D7000C02800D108E002E0491C501EC2B2002A5F
:102D8000FADC08780028EFD100BF481C704700002B
:102D90002DE9FE4F1546DDF830B02889B0F5007FEB
:102DA00002DD00BF00BFACE028891A2802DA00BFAC
:102DB00000BFA6E02A89002354480168284606F08F
:102DC00015FA2989884279D150480668308805F07B
:102DD0003EF88046B8F1040F70DAC8EBC80000EB8B
:102DE00080004B4901EBC0042078022878D10320F1
:102DF0002070F07800F00F006071B08805F027F8BF
:102E00008246F08805F023F88146B07800F0800013
:102E100020B1607910B9BAF1010F02D000BF00BF34
:102E20005FE03A4801680C3104F10C00FFF740FF05
:102E300010B100BF00BF54E0344800680C30FFF709
:102E400091FF071D46E03846FFF78CFF07463868BC
:102E50000090786801903889ADF80800BDF800004E
:102E6000B0F5807F2BD1BDF80200B0F5807F26D170
:102E7000BDF80800B0F5806F21D1019804F0FDFF86
:102E8000A0602449A068884201D90846A060D7F80C
:102E90000A10C4F80C1100BF00BF00BF00BF00BF84
:102EA00000BFD4F8100140B104F5867104F10C00A4
:102EB000D4F81031D4F81421984722E010E0BDF87E
:102EC000080004F0C4FF07F10A014718A9F1010046
:102ED0001FFA80F9B9F1000FB5DC00BF00BF00E0B8
:102EE0000FE0D4F8100138B1002104F10C00D4F83F
:102EF0001031D4F81421984700202070C4F8100134
:102F000000BF284606F018FABDE8FE8FA802002090
:102F1000C0230020803A09002DE9F74F82B0074610
:102F2000894600BF00BF00BF022F0CDB00BF4FA3CC
:102F30004FF40F7255A15BA0FFF798FA0020002014
:102F400000BFAFF3008000BF00BF604800EB870008
:102F500020B15E4850F8270000280CD100BF43A3E1
:102F600040F23D225AA14FA0FFF780FA0020002036
:102F700000BFAFF3008000BF00224FF488711046FD
:102F800005F0C0FD0546002D6AD000BF286860B17D
:102F900000BF36A340F2432256A142A0FFF766FAD3
:102FA0000020002000BFAFF3008000BFD5F80480F0
:102FB0000020C8F80000C8F80400C8F80800049809
:102FC00004F045FFA8F80000012088F80200000284
:102FD000A8F8040008F10C044E46761E00BF761CCB
:102FE000A346641C0020009007E030782070641C29
:102FF0000098401CC0B20090761C30782E2802D079
:1030000030780028F1D100988BF800003078002843
:10301000E5D104F8010B4FF48070ADF80400ADF871
:10302000060001982060AA88201D801A81B22846D7
:1030300006F016FB254800EB87013522344800686E
:103040000CF0D8F8214800EB870235232946304898
:1030500000680CF08BFA8246284606F06DF901E014
:103060004FF0FF3A504605B0BDE8F08F44726976E4
:103070006572735C6C7769702D312E342E315C6310
:103080006F72655C646E732E63000000646E732063
:10309000736572766572206F7574206F6620617239
:1030A00072617900417373657274696F6E202225B5
:1030B0007322206661696C6564206174206C696E9E
:1030C0006520256420696E2025730A00A002002077
:1030D000646E732073657276657220686173206E0A
:1030E0006F20495020616464726573732073657446
:1030F0000000000070627566206D75737420626553
:1031000020696E206F6E6520706965636500000040
:103110009802002002280ADA054A12683AB131B151
:1031200029B10A681AB1034A0B6842F82030704787
:1031300098020020A002002010B5044600BF00BF86
:1031400000F00AF8002203494FF47A7007F036FBCA
:1031500010BD00003931000810B50448006818B1EE
:1031600000BF00BFFFF7BCFC10BD000098020020AC
:1031700000BF054A128802F04002002AF9D0C2B20C
:10318000014B1B1D1A80704700380140F8B50446FA
:103190000D46A66825630DB9002002E02846FDF71C
:1031A00025F86063A0680A2845D2DFE800F04405EE
:1031B0004408440B0E0F10110020A0603BE00220D9
:1031C000A06038E00420A06035E000BF00BF00BF71
:1031D000A068092804D02146184807F0ADFB06E096
:1031E000E06A006A18B1E06A016A20468847206AEE
:1031F000E061606B0090207C401CC0B2236B2074A7
:10320000607402460521204600F0A4FB00BF214661
:103210000A4807F091FB4FF47A72616901FB02F0F2
:103220002246064907F0CAFA00BFE069401EE06185
:103230000420A06000BF00BFF8BD0000ED39000809
:1032400000218160C1600174062141610A21816110
:1032500002210162052181620021416370472DE94D
:10326000F84F0646884691464446B9F1040F01D20C
:10327000BDE8F88F14F8017B14F801AB2578641CC5
:103280002D0220780543641C042D00D2F0E74D4543
:1032900000DDEDE72D1FB06810B1B068012800D146
:1032A000E6E7082F2DD2DFE807F02C040B12131BE2
:1032B00022262B4622465146304600F001FA3AE0DB
:1032C0002B4622465146304600F032F933E000BF2B
:1032D0002346524639463046009500F08DF92AE0E3
:1032E0002B4622465146304600F0A0FA23E03046F5
:1032F00000F060FA1FE02A462146304600F008F947
:1033000019E0F06A406B48B10095F06A23465246D6
:103310003946D0F834C03046E04758B9281D0090EF
:10332000307C401CC0B23074024643460721304610
:1033300000F010FB00BF00BF00BF99E770B5044666
:10334000A568A068801E08282DD2DFE800F00407D9
:103350001118191A1B220020A06025E00120A0608E
:10336000E06A406A18B1E06A416A204688471BE07B
:103370000020A06021460D4807F0DEFA14E000BFEF
:1033800000BF00BF0120A0602146084807F0D4FA22
:103390000AE0E06A006A18B1E06A016A20468847DC
:1033A0000120A06000E000BF00BF70BDED39000843
:1033B00070B50446A568A06810B1012811D102E0DB
:1033C0000220A0600EE0207B00F0040010B103207A
:1033D000A06005E00021204600F060FA0620A06011
:1033E00000E000BF00BF70BD70B50446A568A068CE
:1033F0000A282DD2DFE800F0052C0F201D2C2C2CE4
:103400002C210120A060E06A406A18B1E06A416A9C
:10341000204688471CE0207B00F0040010B1032008
:10342000A06005E00021204600F038FA0620A060E8
:103430000EE00520A06000BF00BF207B00F002006E
:1034400028B12046FFF77AFF2046FFF7B1FF00BF03
:1034500000BF70BD38B50446A068801E082851D250
:10346000DFE800F0091B0413141516252146274830
:1034700007F062FA00BF0220A060E06A806A18B11B
:10348000E06A816A204688473DE000BF00BF00BF78
:1034900021461E4807F050FA00BF0320A060E06AF2
:1034A000806A18B1E06A816A204688472BE0E06AAA
:1034B000006A18B1E06A016A20468847206AE06124
:1034C000606B0090207C401CC0B2236B2074607441
:1034D00002460521204600F03DFA00BF21460B4878
:1034E00007F02AFA4FF47A72616901FB02F0224672
:1034F000064907F063F900BFE069401EE06105205E
:10350000A06000E000BF00BF38BD0000ED3900083A
:1035100030B5042A00D230BD11F8013B11F8014B3F
:103520008568072D01D10625856000BFF3E70000FF
:10353000F8B504460D4617461E46607CA84201D1E8
:10354000A07C00B1F8BDE06AC06830B1E06A3246E4
:103550003946C3682046984703E00EB9012000E0D1
:10356000002000B9EEE70120A074A068801E0828A2
:103570003DD2DFE800F004053C3C0E131E2E00BFD8
:103580000020EAB2034606210090204600F0E2F94E
:103590002DE00720A060A069E06128E021461548E1
:1035A00007F0CAF90021204600F078F90620A06053
:1035B0001DE021460F4807F0BFF90920A060A0696F
:1035C000E061E06AC06918B1E06AC16920468847D5
:1035D0000DE0E06A006A18B1E06A016A2046884797
:1035E0000021204600F05AF90620A06000BF00BF6D
:1035F00000BFA7E7ED3900082DE9F84F04460F4654
:1036000015469846DDF828A0607CA84201D1A07C30
:1036100008B1BDE8F88F032F02D1E06A006901E02C
:10362000E06A40698146B9F1000F05D05246414633
:103630002046C847061E00D1EBE70120A074A06811
:10364000801E082837D2DFE800F0040536360E1D4C
:103650000F2800BF0020EAB2034606210090204652
:1036600000F078F927E000BF2146144807F064F91C
:10367000002E02DA0320A06003E00021204600F0C3
:103680000DF918E021460D4807F056F900212046B3
:1036900000F004F90620A0600DE0E06A006A18B1AD
:1036A000E06A016A204688470021204600F0F6F8CB
:1036B0000620A06000BF00BF00BFAAE7ED390008E8
:1036C0002DE9FF4182B004460F461646A068801ED1
:1036D000082825D2DFE800F0041D0F10242424114F
:1036E000002003463A4606210090204600F032F9B9
:1036F00006B0BDE8F08100BFFAE7E06A006A18B1E1
:10370000E06A016A204688470021204600F0C6F89A
:1037100006E00021204600F0C1F80620A06000BFAE
:1037200000BFE06A806988B1D4E90901884201DB01
:10373000012000E000208046E06A434605AA3146A9
:10374000D0F818C02046E047054604E0059808B1C7
:10375000042500E002250598E9B233463A46009078
:10376000204600F0F7F8022D15D1A06807280DD1EA
:1037700021460F4807F0E0F80920A060E06AC06920
:1037800030B1E06AC1692046884701E00820A060A6
:103790000020606209E0A068072801D00620A06030
:1037A000032D02D1606A401C606200BFA0E70000E8
:1037B000ED39000810B50446A068042806D0052895
:1037C00012D007281ED009282BD11EE0214616480A
:1037D00007F0B2F80220A060E06A806A18B1E06ADF
:1037E000816A204688471DE021460F4807F0A4F86B
:1037F0000320A060E06A806A18B1E06A816A20460E
:1038000088470FE00620A0600CE0E06A006A18B16B
:10381000E06A016A204688470021204600F03EF811
:1038200000E000BF00BF10BDED390008F8B5044648
:103830000D4616461F46A068072804D0082803D066
:1038400009281FD103E000BF0620A0601AE0E06A4B
:10385000006A18B1E06A016A204688470020E061EA
:103860000520A06000BF21460B4807F065F84FF423
:103870007A72616901FB02F02246074906F09EFF59
:1038800000BF00BF00BF0020EAB20346062100903F
:10389000204600F05FF8F8BDED3900087CB504461D
:1038A0000E46A06806280ED0A06807280BD0A06896
:1038B000082808D0E06A006818B1E06A016820466C
:1038C00088470020606236B9A069E061207C401C16
:1038D000C0B2207460740020A0742068C0EB001196
:1038E00001EB4010194901EB401000F10805E06AB6
:1038F0004068F8B1E06A8068E0B1E06A416820465B
:10390000884701901249206851F82000001F019952
:10391000884205DA0E49206851F82000001F019006
:10392000E06A806840B1E06A01AA294683682046BF
:10393000984701E00020019001980090627C2B469E
:103940000121204600F006F87CBD0000D4190020BB
:10395000140100202DE9F047054689469246984615
:10396000089E2868C0EB001101EB40101D4901EBD7
:1039700040141D49286851F82000001FB04203DAA6
:10398000286851F82000061F3EB104F10800804568
:1039900003D032464146FCF7F9FB371DFF2004F8FF
:1039A000010B032004F8010BA888001204F8010B96
:1039B000287904F8010B04F8019B04F801AB380ADC
:1039C00004F8010B27702A68C2EB021303EB4212C2
:1039D000044B03EB42113A1D286806F0DFFBBDE8FB
:1039E000F0870000D41900201401002038B50546E6
:1039F0002C46A068001F05285BD2DFE800F0030416
:103A00003637380000BFE06900280EDCA0680428C3
:103A100001D1022000E00320A060E06A806A18B3B0
:103A2000E06A816A204688471EE0606B0090207C37
:103A3000401CC0B2236B20746074024605212046EE
:103A4000FFF788FF00BF21461B4806F075FF4FF4C3
:103A50007A72616901FB02F02246174906F0AEFE58
:103A600000BFE069401EE06124E000BF00BFE069E4
:103A700000280DDC0320A060207B00F00100B8B915
:103A8000E06A806AA0B1E06A816A204688470FE058
:103A9000E06A006B18B1E06A016B2046884701219B
:103AA0002046FFF7FBFEA068072801D10620A06092
:103AB00000E000BF00BF38BDED390008024600201D
:103AC0007047000070B506460C4615461CB105A1AE
:103AD0002046FCF7ADFB1DB102A12846FCF7A8FB70
:103AE000012070BD6E6F6E65000000002DE9F05F73
:103AF00082460D4693461E46DDE90A7900BF4FF027
:103B0000000835B1287820B10C492846FCF775FB30
:103B100010B10020BDE8F09F0948FCF767FB0446A0
:103B2000B4F5807F01DD4FF48074224604493046AD
:103B3000FCF72CFB3C600120ECE70000BC1F0020E0
:103B4000BD2000200346002070470020704770B55C
:103B500004460D462946204604F09BF9C04380B236
:103B600070BD2DE9F05F0746884691469A460024CD
:103B7000A3463D461AE000BF00BF6989686804F0AB
:103B800088F90444A0B200EB1444688900EBD071BA
:103B90004910A0EB410141B1CBF1010000F0FF0B56
:103BA000E0B2C4F3072141EA00242D68002DE2D1E0
:103BB000BBF1000F04D0E0B2C4F3072141EA0024B6
:103BC000D8F80060B0B204444FF6FF7000EA164027
:103BD0000444D9F80060B0B204444FF6FF7000EA24
:103BE00016400444504604F032F904440A9804F0A4
:103BF0002EF90444A0B200EB1444A0B200EB14442C
:103C000000BF00BFE04380B2BDE8F09F18B5024698
:103C10000092D04300B10AB9012018BD91F83100DB
:103C200000F0020008B90020F7E74868904201D18F
:103C30000020F2E700988B681840D1E90134234056
:103C4000984208D1886822EA00008C68E3439842D1
:103C500001D10120E1E70020DFE7000070B5054653
:103C60000C462846FEF748FE08B1002070BD34B966
:103C700004480078C0F3400080F00100F6E701201E
:103C8000F4E70000B41F00202DE9F74F8CB0044684
:103C90008946B9F828000890142004904FF00008D5
:103CA00060680B900B9EF08804F0EDF80390039889
:103CB000C0F30C000790039800F400500690208990
:103CC000143880B209900899A1F11400C11700EBD3
:103CD0005171C1F3CF010A91B9E0089814380999DC
:103CE000884201DB012000E0002005900798C0F326
:103CF0000C00069908430390059818B9039840F4FE
:103D000000500390059808B1099801E00A98C00096
:103D10001FFA80FB00221421022004F0F3FE054666
:103D200025B94FF0FF300FB0BDE8F08F00BF6089BC
:103D300014280CDA00BF49A340F2FB2251A159A07C
:103D4000FEF794FB0020002000BFAFF3008000BF0F
:103D5000142268680B99FCF719FA6E686168049878
:103D60000844606061890498081A6081CDF808B041
:103D70003FE061890298814201DD029800E060899C
:103D80008046B8F1000F01D1246832E000F0A2F8BB
:103D900007462FB9284605F0CFFA4FF0FF30C2E7AB
:103DA00060683B4602224146CDE90008032005F049
:103DB000DBF88246BAF1000F08D1384600F092F8DD
:103DC000284605F0B9FA4FF0FF30ACE7204605F081
:103DD0003BFD7C613D4838615146284605F046F977
:103DE0000298A0EB080080B20290029800B124680B
:103DF00000BF02980028BCD1CDF81080039804F0D1
:103E000026F8F0800BF1140188B204F020F87080DD
:103E10000020708114213046FFF799FE7081D9F897
:103E20001430294648460E9A984729480088401C75
:103E300027490880284605F07FFA0998A0EB0B0077
:103E400080B209900A990798084480B207900998AF
:103E500000287FF442AF00BF65E700004472697636
:103E60006572735C6C7769702D312E342E315C6312
:103E70006F72655C697076345C69705F66726167E9
:103E80002E63000074686973206E65656473206139
:103E9000207062756620696E206F6E65207069659E
:103EA00063652100417373657274696F6E2022250A
:103EB0007322206661696C6564206174206C696E90
:103EC0006520256420696E2025730A007162000850
:103ED0003852002010B50249888904F09DF910BDC0
:103EE0002400010810B5044600BF64B900BF08A350
:103EF00040F2792210A113A0FEF7B8FA00200020AA
:103F000000BFAFF3008000BF204604F0A9F810BD49
:103F1000447269766572735C6C7769702D312E34EA
:103F20002E315C636F72655C697076345C69705FBA
:103F3000667261672E6300007020213D204E554C53
:103F40004C000000417373657274696F6E20222506
:103F50007322206661696C6564206174206C696EEF
:103F60006520256420696E2025730A002DE9F0473D
:103F7000064689468048408B401C81B27E4841837A
:103F8000756828780421B1EB201F12D000BF00BF54
:103F9000304605F0D1F97848808D401C81B27648D2
:103FA0008185C08B401C81B27348C1830020BDE86D
:103FB000F087287800F00F074FF6FF7000EA8707B8
:103FC000688803F060FF80467089B84202DB308960
:103FD000404519DA7089B84201DA00BF00BF308964
:103FE000404501DA00BF00BF304605F0A5F9624840
:103FF000408C401C81B260484184C08B401C81B21F
:104000005D48C1830020D2E739462846FFF79FFD6F
:1040100088B100BF00BF304605F08EF95648008CCD
:10402000401C81B254480184C08B401C81B252486C
:10403000C1830020BBE74146304605F011FB2869EB
:104040004E490860E8684E4908604FF0010A4C4646
:1040500000BF00BF00BF94F8310000F0010088B13C
:10406000201D78B1606868B1444800686168884282
:1040700005D0424908682146FFF7C8FD10B100BFCE
:1040800000BF0DE0BAF1000F04D04FF0000A3D4828
:10409000046800E024684C4500D12468002CD8D185
:1040A00000BF374908684946FFF7B0FD28B93448D2
:1040B000007800F0F000E0280CD100BF00BF3046CF
:1040C00005F03AF92C48C08B401C81B22A48C183C4
:1040D00000206CE734B900BF00BF304605F02CF972
:1040E000002064E7E8884FF63F71084048B100BF00
:1040F00000BF304600F016FA06460EB9002056E71B
:10410000756800BF00BF00BF00BF1F48C0F8009027
:104110001E4805604946304606F010FA00BB687A32
:10412000062806D0112809D1494630460BF098F8E8
:1041300015E04946304607F035FA10E0304605F004
:10414000FBF800BF00BF0C48008D401C81B20A483C
:104150000185C08B401C81B20748C18300BF00BFEE
:1041600000200949086009490860054908600349B9
:10417000086000BF1BE70000385200202C0300201D
:1041800028030020B8020020200300202403002080
:104190002DE9FE4F05460F4616469846DDE90C9A76
:1041A00000BFE88901280CD000BF13A340F23932C8
:1041B0001AA11DA0FEF75AF90020002000BFAFF39E
:1041C000008000BF304600F0F9FD041E0AD100BF98
:1041D00000BF1F48C08C401C81B21D48C184201FF5
:1041E000BDE8FE8F4346324639462846CDE9009A5F
:1041F000029400F09BF8F3E7447269766572735C91
:104200006C7769702D312E342E315C636F72655C72
:10421000697076345C69702E63000000702D3E7208
:104220006566203D3D203100417373657274696F8E
:104230006E2022257322206661696C65642061749A
:10424000206C696E6520256420696E2025730A0044
:10425000385200202DE9FF4F83B0054688461646A8
:10426000DDE911ABDDF8409000BFE88901280CD0F2
:1042700000BF17A340F261321EA121A0FEF7F6F89D
:104280000020002000BFAFF3008000BF304600F0E8
:1042900095FD041E0BD100BF00BF2348C08C401CFD
:1042A00081B22148C184201F07B0BDE8F08FC4F857
:1042B00038B0CDE9009A0294324641462846069B22
:1042C00000F034F807460020A0633846ECE7000011
:1042D000447269766572735C6C7769702D312E3427
:1042E0002E315C636F72655C697076345C69702E28
:1042F00063000000702D3E726566203D3D20310058
:10430000417373657274696F6E2022257322206673
:1043100061696C6564206174206C696E6520256438
:1043200020696E2025730A00385200202DE9F84FCD
:104330000646884691469A460C9F002500BFF089A4
:1043400001280CD000BF53A34FF427725AA15DA0DF
:10435000FEF78CF80020002000BFAFF3008000BF04
:10436000B9F1000F76D04FF0140B1421304605F050
:10437000C9F858B100BF00BF5C48808D401C81B2B5
:104380005A4881856FF00100BDE8F88F746800BF5E
:10439000708914280CD200BF3EA340F2C92254A158
:1043A00048A0FEF763F80020002000BFAFF30080B4
:1043B00000BF84F808A00B9860720B984AEA0020AE
:1043C0000544D9F800002061208A80B205442069A4
:1043D00005EB104558464FEAEB710BEB9171C1F3B9
:1043E000870141F0400121700A98607021780A9895
:1043F00041EA00200544308903F029FD608060888F
:1044000005440020E0804648008803F020FDA0809D
:10441000A088054442480088401C41490880B8F102
:10442000000F02D0D8F8000010B97868E06002E010
:10443000D8F80000E060A08980B20544E06805EB90
:104440001045A8B200EB154505EB1545ED43658118
:1044500004E0FFE7746820690090E9462348008B78
:10446000401C2249088300BF00BF388D48B1308905
:10447000398D884205DD4A4639463046FFF704FC4F
:1044800082E700BF00BF4A46314638467B699847FD
:104490007AE70000447269766572735C6C776970C4
:1044A0002D312E342E315C636F72655C6970763409
:1044B0005C69702E63000000702D3E726566203DC1
:1044C0003D203100417373657274696F6E2022253F
:1044D0007322206661696C6564206174206C696E6A
:1044E0006520256420696E2025730A00385200205B
:1044F000636865636B2074686174206669727374A5
:1045000020706275662063616E20686F6C64207332
:1045100074727563742069705F68647200000000D3
:10452000300300202DE9F84F8046002000907048AD
:104530004088401C6E494880D8F80450287800F024
:104540000F001421B1EB800F07D000BF00BF6848F7
:10455000808A401C66498882BEE0E88803F093FCAC
:10456000C0F30C004FF6FF7101EAC00A688803F03F
:104570008AFC297801F00F01A0EB81001FFA80FB73
:10458000404604F02AFE06465A4801888819042845
:1045900011DD3146284600F0A5FB20B155480088C2
:1045A0003044042807DD00BF00BF51488089401C0B
:1045B0004F49888190E05048046819E06069E968D3
:1045C000884209D1A0692969884205D1A089A988B2
:1045D000884201D1012000E0002038B100BF00BFB7
:1045E0004348C08A401C4249C88203E000942468C2
:1045F000002CE3D100BF34B93146284600F074FAEC
:10460000044694B968E0E88803F03DFCC0F30C0070
:1046100058B9E08903F037FCC0F30C0028B114222C
:10462000294604F10800FBF7B1FD32480088304408
:1046300030490880A87900F0200040B9A07F40F000
:104640000100A0770AEB0B00A08300BF00BF41462A
:10465000204600F053F8D0B3A08B1430A0836068DC
:104660004068076860684568142204F1080128461C
:10467000FBF78CFDA08B03F0EAFB68800020E8804C
:10468000688114212846FFF762FA6881D4F8048013
:104690000CE0D7F804906FF01301384604F032FFB5
:1046A0003946404604F0E2FCD9F80070002FF0D102
:1046B0002046009900F0BEF9404604F08EFD0D49F9
:1046C0000988081A0B4908804046BDE8F88FFFE7C3
:1046D00000BF00BF0020F8E700BF00BF0448C0884B
:1046E000401C0349C880404604F026FE0020ECE749
:1046F0003852002038030020340300202DE9FC5FED
:1047000006460F4600254FF0010BD7F804A0BAF873
:10471000020003F0B8FB9AF8001001F00F01A0EBC3
:10472000810080B20090BAF8060003F0ACFBC0F341
:104730000C004FF6FF7101EAC000019000BF00BFFE
:104740007C68002020600198A080DDE9001008440A
:10475000E080D6F804902EE0D9F80480A088B8F85C
:104760000410884210DAC4F800905DB1A088E9888E
:10477000884204DBE088B8F80410884200DDC4E019
:104780002F6000E0776019E0A088B8F80410884234
:1047900000D1BAE0A088B8F80610884200DAB4E088
:1047A00035B1E888B8F80410884201D04FF0000B0A
:1047B000D8F800904546B9F1000FCDD100BFB9F14E
:1047C000000F2FD1002D1AD000BFE888A1888842A1
:1047D0000CDD00BF53A340F293125CA163A0FDF770
:1047E00045FE0020002000BFAFF3008000BF2F6017
:1047F000E888A188884215D04FF0000B12E000BF76
:10480000706800280CD000BF46A340F29B1261A143
:1048100056A0FDF72BFE0020002000BFAFF3008064
:1048200000BF7760B07F00F0010000286BD0BBF1C3
:10483000000F65D070684068808810B14FF0000BA1
:104840005EE02546D4F800900BE0D9F80440E888F3
:10485000A188884202D04FF0000B05E02546D4F82D
:104860000090B9F1000FF0D100BFBBF1000F47D0AD
:1048700000BF706860B900BF2AA34FF4DE7253A175
:104880003AA0FDF7F3FD0020002000BFAFF3008049
:1048900000BF00BF70684068A0420CD100BF21A3D8
:1048A00040F2BD1249A131A0FDF7E0FD002000203B
:1048B00000BFAFF3008000BF00BF206860B100BF41
:1048C00018A340F2BF1245A128A0FDF7CFFD00209C
:1048D000002000BFAFF3008000BF00BFE088B18BB5
:1048E00088420CD000BF0FA340F2C11244A11FA008
:1048F000FDF7BCFD0020002000BFAFF3008000BF2B
:104900005846BDE8FC9F0020FBE7384604F065FCF4
:1049100047490988081A46490880384604F00CFDC2
:104920000020EEE7447269766572735C6C7769709B
:104930002D312E342E315C636F72655C6970763474
:104940005C69705F667261672E630000636865630F
:104950006B20667261676D656E747320646F6E277D
:1049600074206F7665726C6170000000417373652E
:104970007274696F6E2022257322206661696C65EE
:1049800064206174206C696E6520256420696E2046
:1049900025730A006E6F2070726576696F757320DB
:1049A000667261676D656E742C2074686973206D22
:1049B000757374206265207468652066697273740B
:1049C00020667261676D656E7421000073616E69A7
:1049D000747920636865636B0000000076616C6920
:1049E000646174655F646174616772616D3A6E657C
:1049F00078745F70627566213D4E554C4C00000026
:104A000076616C69646174655F6461746167726129
:104A10006D3A646174616772616D20656E64213DF9
:104A2000646174616772616D206C656E00000000E6
:104A30003803002070B504460D460F480068A042B8
:104A400003D10D492068086012E000BF002D0CD191
:104A500000BF0AA340F2391212A119A0FDF706FD0A
:104A60000020002000BFAFF3008000BF2068286056
:104A7000204603F0F5FA70BD3403002044726976D5
:104A80006572735C6C7769702D312E342E315C63E6
:104A90006F72655C697076345C69705F66726167BD
:104AA0002E63000073616E69747920636865636BBF
:104AB000206C696E6B6564206C6973740000000083
:104AC000417373657274696F6E20222573222066AC
:104AD00061696C6564206174206C696E6520256471
:104AE00020696E2025730A0070B505460E461749E9
:104AF000488903F091FB0446A4B93146284600F0EA
:104B0000F1F8B04204DB1149488903F085FB044603
:104B100044B90F488089401C0D49888100BF00BFFF
:104B2000002070BD20212046FBF749FB0320E077E1
:104B3000084800682060074804601422294604F1F0
:104B40000800FBF723FB2046EBE7000024000108E8
:104B500038520020340300202DE9F04705460E4668
:104B6000002400BFAE420BD100BF32A3A5223BA15F
:104B70003DA0FDF77BFC0020002000BFAFF30080CC
:104B800000BF002E10D000BF3068A8420BD000BF7D
:104B900028A3A7223EA134A0FDF768FC0020002036
:104BA00000BFAFF3008000BFD5F8048020E0D8F844
:104BB0000490C246D9F80080504604F00EFB074628
:104BC00000BFE019B0F5803F0BDB00BF19A3C62280
:104BD00034A125A0FDF74AFC0020002000BFAFF360
:104BE000008000BFE01984B2504604F0A5FB00BF6E
:104BF000B8F1000FDBD131462846FFF71BFF00BF9D
:104C000030480088A0420BDA00BF0AA3CC222EA1B4
:104C100015A0FDF72BFC0020002000BFAFF30080A3
:104C200000BF28480088001B264908802046BDE8B0
:104C3000F0870000447269766572735C6C77697006
:104C40002D312E342E315C636F72655C6970763461
:104C50005C69705F667261672E63000070726576D2
:104C600020213D2069707200417373657274696F11
:104C70006E2022257322206661696C656420617450
:104C8000206C696E6520256420696E2025730A00FA
:104C9000707265762D3E6E657874203D3D2069709A
:104CA0007200000070627566735F667265656420ED
:104CB0002B20636C656E203C3D203078666666660E
:104CC000000000003803002069705F726561737333
:104CD0005F70627566636F756E74203E3D20636C15
:104CE000656E00002DE9F05F05468946002700BF8C
:104CF0000026B346B246194804681DE06069E968B9
:104D0000884207D1A0692969884203D1A089A9886E
:104D1000884201D0012000E0002048B10AF1010AD8
:104D20000EB9264604E0E07FF17F884200DC26468B
:104D3000206800B1A3462468002CDFD12EB159466B
:104D40003046FFF709FF804647444F4502DABAF183
:104D5000010FCDDC3846BDE8F09F00003403002091
:104D600010B5044600BF00BF00F00AF80022034956
:104D70004FF47A7005F022FD10BD0000614D00086F
:104D800070B500260C48046813E0E07F002807DDBA
:104D9000E07F401EE07700BF00BF2646246808E0A1
:104DA00000BF00BF2546246831462846FFF7D4FEE1
:104DB00000BF002CE9D170BD3403002010B50246BD
:104DC000154801680FE091F8310000F0010048B18A
:104DD00010688B681840D1E901342340984201D112
:104DE000084610BD09680029EDD10C48006830B1B3
:104DF0000A48006890F8310000F0010048B900BF8F
:104E000000BF0748C08C401C83B20548C384002003
:104E1000E7E702480068E4E7B8020020BC0200208F
:104E20003852002038B504466946204600F006F89E
:104E300008B1009838BD4FF0FF30FBE72DE9FF4780
:104E4000064688466F46347800BF302C01DB392C8B
:104E500003DD002004B0BDE8F08700254FF00A090B
:104E6000302C0ED1701C06460478782C01D0582CBA
:104E700005D14FF01009701C0646047801E04FF090
:104E8000080900BF302C09DB392C07DCA4F1300005
:104E900005FB0905701C06460478F3E7B9F1100F0D
:104EA0001BD1302C01DB392C07DD612C01DB662C9A
:104EB00003DD412C11DB462C0FDC612C03DB7A2C4B
:104EC00001DC612100E0412104F10A00401A40EABE
:104ED0000515701C06460478D4E700BF00BF2E2CD1
:104EE00009D103A8874201D30020B3E720C7701C73
:104EF00006460478A9E700BF00BF6CB1202C0BD098
:104F00000C2C09D00A2C07D00D2C05D0092C03D06D
:104F10000B2C01D000209DE76846381A012101EBD7
:104F2000A00005282AD2DFE800F00305060F1B00C9
:104F300000208FE72FE0B5F1807F01D3002089E7C3
:104F4000009845EA006526E0B5F5803F01D30020D2
:104F500080E700980006019940EA014005431AE005
:104F6000FF2D01D9002075E700980006019940EA5D
:104F70000140029940EA012005430CE000BF00BF58
:104F80000AA3F32213A116A0FDF770FA0020002057
:104F900000BFAFF3008000BFB8F1000F04D0284677
:104FA00002F048FFC8F80000012053E74472697618
:104FB0006572735C6C7769702D312E342E315C63B1
:104FC0006F72655C697076345C69705F616464728D
:104FD0002E630000756E68616E646C65640000008D
:104FE000417373657274696F6E2022257322206687
:104FF00061696C6564206174206C696E652025644C
:1050000020696E2025730A002DE9F74F84B00C4605
:10501000174604980068794901EB4015287800F09C
:10502000010000284ED02878C0F3400008B10A20C3
:1050300000E0062001900198381A071E00DADAE035
:1050400014F801AB14F8019B0198814508D1287828
:10505000C0F3400008B1012000E00320504500D01B
:10506000C9E02678641C360220780643641C3602A8
:1050700020780643641C360220780643641C3046C0
:1050800002F0D8FE8046A968414500D0B3E02878F8
:10509000C0F34000A8B12678641C3602207806438D
:1050A000641C360220780643641C360220780643CE
:1050B000641C304602F0BEFE8046E868404500D0E1
:1050C00099E000BF2878C0F34010002839D0297833
:1050D000C1F3801109B1042100E006210846391A04
:1050E0000F1E00DA87E014F801AB14F8019B81452C
:1050F00002D1BAF1020F00D07DE094F800B0641C38
:105100004FF6FF7101EA0B2B217841EA0B0B641C6F
:105110006988594500D06EE02978C1F3801179B9CA
:1051200014F8011B03912A7903998A4200D062E0A6
:1051300014F8011B02916A7902998A4200D05AE060
:1051400000BF2888C0F3402028B3B81F071E00DA2C
:1051500051E014F801AB14F8019BB9F1060F02D12C
:10516000BAF1810F00D046E02678641C3602207820
:105170000643641C360220780643641C36022078FD
:105180000643641C304602F055FE804628694045BF
:1051900000D030E000BF2888C0F3802028B3B81FBB
:1051A000071E00DA27E014F801AB14F8019BB9F1EF
:1051B000060F02D1BAF1830F00D01CE02678641CE0
:1051C000360220780643641C360220780643641CAD
:1051D000360220780643641C304602F02BFE8046DF
:1051E0006869404500D006E000BF07B103E0012038
:1051F00007B0BDE8F08F0020FAE70000A8110020FA
:105200002DE9F04781460C4690465F49D9F80000E9
:1052100001EB4015D8F80070287800F00100002854
:105220003ED02878C0F3400008B10A2000E00620F4
:10523000824657452FDB2878C0F3400008B1012093
:1052400000E0032004F8010B04F801ABA86802F0A9
:1052500014FE0646300E04F8010B300C04F8010B66
:10526000300A04F8010B04F8016B2878C0F3400001
:1052700070B1E86802F001FE0646300E04F8010B3A
:10528000300C04F8010B300A04F8010B04F8016B30
:10529000A7EB0A0703E0286820F00100286000BFA0
:1052A0002878C0F3401030B32978C1F3801109B1D8
:1052B000042100E006210846874217DB022104F89A
:1052C000011B04F8010B6988091204F8011BA97875
:1052D00004F8011B2978C1F3801129B9297904F850
:1052E000011B697904F8011B3F1A03E0296821F0CA
:1052F0002001296000BF2888C0F34020E0B1062FBC
:1053000016DB812004F8010B062004F8010B286944
:1053100002F0B3FD0646300E04F8010B300C04F821
:10532000010B300A04F8010B04F8016BBF1F03E006
:10533000286820F4007028602888C0F38020E0B13D
:10534000062F16DB832004F8010B062004F8010B5E
:10535000686902F092FD0646300E04F8010B300C2D
:1053600004F8010B300A04F8010B04F8016BBF1FAD
:1053700003E0286820F480602860D8F80000C01B93
:10538000C8F80000BDE8F087A811002030B502463B
:105390003C4D106805EB40113B4D106805EB401487
:1053A0003A4D106805EB4013207800F0010088B1F9
:1053B000087800F0010068B90878C0F3400048B9E7
:1053C000086820F00100401C0860086820F0020016
:1053D000801C08602078C0F3401030B30878C0F318
:1053E000401010BB0878C0F38010F0B9284D106849
:1053F00055F8200028B9086820F020002030086007
:1054000013E01878C0F3401078B11878C0F380101A
:1054100058B1086820F0200020300860086820F0AB
:1054200040004030086058884880087800F001004B
:1054300038B10878C0F3400008B10A2002E0062025
:1054400000E000200D78C5F340153DB10D78C5F39F
:1054500080150DB1042502E0062500E00025284452
:105460000D88C5F340250DB1062500E00025284430
:105470000D88C5F380250DB1062500E000252844E0
:1054800030BD0000A811002088110020E811002084
:105490001C01002070B504460D4800EB44108568DF
:1054A0000C4800EB4410C6680B4850F8240040B18B
:1054B000324629462046FDF7A3FA0020064941F866
:1054C0002400324629462046FDF774FA70BD0000DC
:1054D000A8110020E81100201801002070B5044632
:1054E0000D46C4EBC401034A02EBC1002946FDF797
:1054F0004DFE70BD0812002010B504462121206821
:1055000003F086FA00231A461946206805F006F9CA
:10551000206805F095F82068FFF7BCFF10BD10B5B6
:1055200004462121206803F08BFA10BD2DE9F041DB
:105530000646C6EBC600244901EBC007234800EB32
:105540004614234800EB46153E6048F22100B8801F
:105550002048F862C6EBC6011B4A02EBC100FDF70A
:105560006FFE20212046FAF72AFE20212846FAF76E
:1055700026FE206820F00100401C20600020A06072
:10558000206820F0200020602D2060800F202071F6
:1055900000206071206820F0080008302060286832
:1055A00020F00100401C2860286820F020002860BE
:1055B0000F20287101206871286820F00800083049
:1055C0002860BDE8F081000008120020881100204A
:1055D000C81100202001002070B504460D46164673
:1055E000C4EBC401034A02EBC10032462946FDF771
:1055F00036FE70BD0812002010B50446C4EBC4018D
:10560000024A02EBC100FDF799FE10BD081200200E
:1056100010B50446C4EBC401024A02EBC100FDF719
:10562000C7FE10BD081200202DE9F74F96B00C46BA
:10563000904616980068F54901EB4016202109A80C
:10564000FAF7BDFD2022314601A8FAF79FFD307818
:1056500000F00100002860D03078C0F3400008B1AD
:105660000A2000E006200746404556DC6078B84234
:1056700053D120783178C1F3400109B1012100E014
:105680000321884249D1A8EB0708A41C2578641C93
:105690002D0220780543641C2D0220780543641CEC
:1056A0002D0220780543641C284602F0C3FB814686
:1056B0003078C0F34000B8B12578641C2D02207802
:1056C0000543641C2D0220780543641C2D022078BC
:1056D0000543641C284602F0ADFB8246099820F081
:1056E0000200801C099001E04FF0000A099820F0A8
:1056F0000100401C09903078C0F3C01020B1B9F10E
:10570000000F01D0CDF80C903088C0F3002020B1FC
:10571000BAF1000F01D0CDF810A03078C0F34010DE
:10572000002850D060780746042801D0062F4AD1BF
:10573000B84548DB2078022845D1A8EB0708A41C0F
:1057400094F800B0641C4FF6FF7000EA0B2B207831
:1057500040EA0B0B641C099820F0200020300990CF
:10576000062F1ED114F8010B159014F8010B14909C
:10577000BBF12D0F10D1019820F04000019031793C
:105780001598814202DD15988DF808001498D0B95B
:1057900000208DF8090016E0019820F0200001900B
:1057A00011E0BBF12D0F02D0BBF1370F07D10198EB
:1057B00020F0400040300190ADF806B003E00198C1
:1057C00020F0200001903088C0F3402028B360789A
:1057D0000746062821D1B8451FDB207881281CD137
:1057E000A8EB0708A41C2578641C2D02207805432B
:1057F000641C2D0220780543641C2D02207805438B
:10580000641C284602F016FB1190099820F40070E1
:1058100000F500700990119805903088C0F3802041
:1058200028B360780746062821D1B8451FDB2078C9
:1058300083281CD1A8EB0708A41C2578641C2D0222
:1058400020780543641C2D0220780543641C2D023A
:1058500020780543641C284602F0ECFA1190099860
:1058600020F4806000F58060099011980690B6E001
:1058700014F8010B139014F8017BA8EB0700B0F1AA
:10588000000800DAC0E0E019801E12901398012889
:1058900017D0022802D0032812D167E03078C0F375
:1058A000401038B90998C0F3401018B9062F02D03B
:1058B000042F00D0A8E0099820F0200020300990A3
:1058C0008BE0307800F0010018B13078C0F3400070
:1058D00028B90998C0F3400008B90A2F00D093E016
:1058E000019820F00100401C0190019820F0020076
:1058F000801C01902578641C2D0220780543641CCF
:105900002D0220780543641C2D0220780543641C79
:10591000284602F08FFA8146B9F1000F05D03078A1
:10592000C0F3C01008B1CDF80C902578641C2D028E
:1059300020780543641C2D0220780543641C2D0249
:1059400020780543641C284602F074FA8246BAF1B6
:10595000000F05D03088C0F3002008B1CDF810A0AA
:10596000099820F00200801C099036E0307800F0A1
:10597000010028B9099800F0010008B9062F00D0ED
:1059800042E0019820F0020001902578641C2D026D
:1059900020780543641C2D0220780543641C2D02E9
:1059A00020780543641C284602F044FA8146B9F188
:1059B000000F05D03078C0F3C01008B1CDF80C90BE
:1059C000039820B1019820F00100401C0190099833
:1059D00020F00100401C099000BF00BF129CB8F1EC
:1059E000020F3FF745AFB8F1000F00D00CE016985A
:1059F0008068092804D0202201A93046FAF7C6FBA6
:105A0000012019B0BDE8F08F0020FAE7A8110020AE
:105A100010B50446C4EBC401024A02EBC100FDF715
:105A2000E3FC10BD0812002010B50446C4EBC4010D
:105A3000024A02EBC100FDF781FC10BD08120020F4
:105A40002DE9F04F8BB082460C4617468149DAF8B3
:105A5000000001EB40152022294601A8FAF796FB29
:105A6000287800F0010000284ED02878C0F34000CC
:105A700008B10A2000E006208046B84244DC607885
:105A8000404541D120782978C1F3400109B1012175
:105A900000E00321884237D1A7EB0807A41C267831
:105AA000641C360220780643641C360220780643C4
:105AB000641C360220780643641C304602F0BAF9B2
:105AC0008146A968494500D0C2E02878C0F340006B
:105AD000A8B12678641C360220780643641C36027E
